{
  "contractName": "BaseRelayRecipient",
  "abi": [
    {
      "inputs": [],
      "name": "getTrustedForwarder",
      "outputs": [
        {
          "internalType": "address",
          "name": "",
          "type": "address"
        }
      ],
      "stateMutability": "view",
      "type": "function"
    }
  ],
  "bytecode": "0x6080604052348015600f57600080fd5b5060be8061001e6000396000f3fe6080604052348015600f57600080fd5b506004361060285760003560e01c8063ce1b815f14602d575b600080fd5b6033605f565b604051808273ffffffffffffffffffffffffffffffffffffffff16815260200191505060405180910390f35b60008060009054906101000a900473ffffffffffffffffffffffffffffffffffffffff1690509056fea2646970667358221220f473b60a9bad9c5063bff01e56e5bd96f7a8f2c67ce78c3135729e71e2b7f58a64736f6c634300060c0033",
  "immutableReferences": {},
  "source": "pragma solidity ^0.6.2;\n\nimport \"./0x/LibBytesV06.sol\";\n\nimport \"./interfaces/IRelayRecipient.sol\";\n\n/**\n * A base contract to be inherited by any contract that want to receive relayed transactions\n * A subclass must use \"_msgSender()\" instead of \"msg.sender\"\n */\ncontract BaseRelayRecipient is IRelayRecipient {\n\n    /// the TrustedForwarder singleton we accept calls from.\n    // we trust it to verify the caller's signature, and pass the caller's address as last 20 bytes\n    address internal trustedForwarder;\n\n    /*\n     * require a function to be called through GSN only\n     */\n    modifier trustedForwarderOnly() {\n        require(msg.sender == address(trustedForwarder), \"Function can only be called through trustedForwarder\");\n        _;\n    }\n\n    function getTrustedForwarder() public override view returns(address) {\n        return trustedForwarder;\n    }\n\n    /**\n     * return the sender of this call.\n     * if the call came through our trusted forwarder, return the original sender.\n     * otherwise, return `msg.sender`.\n     * should be used in the contract anywhere instead of msg.sender\n     */\n    function _msgSender() internal override virtual view returns (address payable) {\n        if (msg.data.length >= 24 && msg.sender == address(getTrustedForwarder())) {\n            // At this point we know that the sender is a trusted forwarder,\n            // so we trust that the last bytes of msg.data are the verified sender address.\n            // extract sender address from the end of msg.data\n            return address(uint160(LibBytesV06.readAddress(msg.data, msg.data.length - 20)));\n        }\n        return msg.sender;\n    }\n}\n",
  "sourcePath": "@opengsn/gsn/contracts/BaseRelayRecipient.sol",
  "compiler": {
    "name": "solc",
    "version": "0.6.12+commit.27d51765.Emscripten.clang"
  },
  "schemaVersion": "3.4.1",
  "updatedAt": "2021-05-27T20:11:12.623Z",
  "devdoc": {
    "kind": "dev",
    "methods": {},
    "version": 1
  },
  "userdoc": {
    "kind": "user",
    "methods": {
      "getTrustedForwarder()": {
        "notice": "return the forwarder we trust to forward relayed transactions to us. the forwarder is required to verify the sender's signature, and verify the call is not a replay."
      }
    },
    "notice": "A base contract to be inherited by any contract that want to receive relayed transactions A subclass must use \"_msgSender()\" instead of \"msg.sender\"",
    "version": 1
  }
}